:1000000012C021C020C01FC01FC01DC031C01BC0F6
:1000100025C07FC018C017C016C015C014C013C0BB
:1000200012C011C010C011241FBECFE5D4E0DEBF46
:10003000CDBF20E0A0E6B0E001C01D92AA36B20715
:10004000E1F77ED14DC3DCCF1F920F920FB60F9216
:1000500011240F900FBE0F901F9018951F920F92B2
:100060000FB60F9211240F900FBE0F901F9018958E
:100070001F920F920FB60F9211248F939F9380912E
:100080006000815080936000811138C080916200CF
:100090008F5F80936200809161008F5F8093610029
:1000A00080916500882329F08091650081508093BC
:1000B00065008091680081FF06C0809168008D7F97
:1000C0008093680005C0809168008260809368001A
:1000D000809162008C3339F4109262008091630049
:1000E0008F5F80936300809163008B3338F01092B0
:1000F0006300809166008F5F8093660081E89FE0D7
:100100009BBD8ABD9F918F910F900FBE0F901F9046
:1001100018951F920F920FB60F9211248F93839B05
:100120000FC0809168008B7F80936800809164008D
:100130008823A1F0809164008150809364000EC0F8
:1001400080916800846080936800809164008A3F99
:1001500028F4809164008F5F809364008F910F90EA
:100160000FBE0F901F90189580916200813021F48E
:100170008091630080936900809162008E3141F428
:10018000809163008A3020F480916300809369003D
:100190008091620080FF14C0809169008823B1F0D3
:1001A000909A8091680086FD11C08091690081500D
:1001B000809369008091680080648093680008954E
:1001C0009098809168008F7B80936800089580EC00
:1001D00087BB18BA83E384BB15BA81E681BB88E08C
:1001E00082BB08958FE981BF10926800089585E071
:1001F00083BF89B7816089BF89E08EBD81E49FE0BC
:100200009BBD8ABD89B7806189BF0895009749F475
:10021000AC98A898AD98A998C6989598C7989698BC
:1002200018C08130910549F4AC98A89AAD98A99866
:10023000C6989598C798969818C08230910549F449
:10024000AC98A89AAD98A99AC6989598C798969888
:1002500018C08330910549F4AC98A89AAD98A99A32
:10026000C698959AC798969818C08430910549F415
:10027000AC98A89AAD98A99AC698959AC798969A54
:1002800018C08530910549F4AC9AA89AAD98A99800
:10029000C6989598C798969818C08630910549F4E5
:1002A000AC9AA89AAD9AA99AC6989598C798969824
:1002B00018C08730910549F4AC9AA89AAD9AA99ACA
:1002C000C69A959AC798969818C08830910549F4AF
:1002D000AC9AA89AAD9AA99AC69A959AC79A969AEC
:1002E00018C08930910549F4AC9AA898AD98A9989E
:1002F000C6989598C798969818C08A30910549F481
:10030000AC9AA898AD9AA998C6989598C7989698C7
:1003100008958B30910549F4AC9AA898AD9AA998A4
:10032000C69A9598C798969808950C9741F4AC9AF8
:10033000A898AD9AA998C69A9598C79A969808953C
:1003400046DF50DF54DF789480E090E0B4D18093B2
:10035000660081E090E0AFD18093630080916300FC
:100360008B3318F08BE380936300D6E0C4E01CE38A
:100370000CE00F2EFBE07F2EF02D0F2EFAE08F2EDB
:10038000F02D0F2EF9E09F2EF02D6894AA24A3F8EB
:100390000F2EF7E0BF2EF02D0F2EF5E0CF2EF02D13
:1003A0000F2EF3E0DF2EF02D6894EE24E1F8FF2409
:1003B000F394DADE8091680083FF0DC080916800BD
:1003C000877F80936800D09364001092660010923B
:1003D0006300C09367008091680084FF07C080912C
:1003E00068008F7E809368001093650080916400A0
:1003F000882321F180916400853000F580916800A8
:1004000082FF0AC08091680084FD06C08091680068
:1004100080628093680012C08091680085FF0EC0E2
:100420008091680082FD0AC0809168008F7D809372
:10043000680080916800806180936800809164000A
:10044000853190F08091680082FF0EC08091680035
:1004500083FD0AC0809168008F7D80936800809141
:100460006800886080936800809161008D3010F092
:10047000109261008091680088239CF08091630055
:10048000813079F46091660080E090E01CD1609149
:10049000630081E090E017D18091680080688093CC
:1004A000680080916800882374F0809163008A302E
:1004B00051F46091630081E090E005D18091680083
:1004C00080688093680080916800882374F0809130
:1004D0006300843151F46091630081E090E0F3D0D7
:1004E000809168008068809368008091680088230C
:1004F00074F0809163008E3151F46091630081E06B
:1005000090E0E1D0809168008068809368008091DD
:100510006800882374F080916300883251F4609100
:10052000630081E090E0CFD0809168008068809384
:10053000680080916800882374F0809163008233A2
:1005400051F46091630081E090E0BDD0809168003B
:100550008068809368008091680088234CF48091C3
:100560006300853029F4809168008F77809368005C
:100570008091680088234CF4809163008F3029F4C7
:10058000809168008F77809368008091680088234D
:100590004CF480916300893129F4809168008F7751
:1005A000809368008091680088234CF480916300F8
:1005B000833229F4809168008F778093680080915E
:1005C000680088234CF4809163008D3229F4809177
:1005D00068008F77809368008091680088234CF4CE
:1005E00080916300873329F4809168008F7780932E
:1005F000680080916500882329F08091610090E077
:1006000005DED7CE80916600853011F4F092670048
:10061000809166008E3011F4E09267008091660050
:10062000853111F4D0926700809166008C3111F40D
:10063000C093670080916600833211F4C092670016
:10064000809166008A3211F4D09367008091660031
:10065000813311F4B092670080916600883311F401
:10066000A0926700809166008F3311F4909267002A
:1006700080916600863411F4809267008091660054
:100680008D3411F47092670080916600843510F00B
:10069000009367008091680081FF08C08091660028
:1006A000863020F481E090E0B1DD83CE8091670058
:1006B00090E0ACDD7ECEE199FECF9FBB8EBBE09A91
:1006C00099278DB30895262FE199FECF9FBB8EBB4E
:1006D0002DBB0FB6F894E29AE19A0FBE01960895E9
:0406E000F894FFCFBC
:00000001FF
